:100000000C945B000C94AB120C94DC120C94411712
:100010000C9441170C9441170C9441170C94411700
:100020000C9441170C9441170C9441170C944117F0
:100030000C9441170C9441170C94EE130C94411737
:100040000C9441170C9441170C946C130C944117A9
:100050000C9441170C9441170C9441170C944117C0
:100060000C9441170C944117010003CD8003CD047B
:1000700018002E96041804268004260454002EE14D
:100080000454045A80045A046B002F0F046B046F4D
:1000900080046F0473002F200473047B80047B04AE
:1000A0007F002F24047F04818004810483002F2893
:1000B0000483048A800011241FBECFEFD8E0DEBF86
:1000C000CDBFE8E6F0E040E017C0B591A5913591CD
:1000D0002591059107FD0CC095918591EF01F92FB0
:1000E000E82F05900D92A217B307D9F7FE0104C0BF
:1000F0001D92A217B307E1F7E53BF40731F70E9421
:0A01000057160C94EA16F894FFCF8E
:10010A00FFFFFFFFFFFFFFFFFFFFFFFFFFFFFFFFF5
:10011A00FFFFF79FDE7ECDBDB4FCAC7CAC3BAC5B95
:10012A00BD1CD65DFFFFFFFFFFFFFFFFFFFFFFFFC5
:10013A00FFFFFFFFFFFFFFFFFFFFFFFFFFFFFFFFC5
:10014A00FFFFFFFFFFFFEF1FCDBDBD3DBD1CBD1C67
:10015A00B4DCB49BAC5B9BDA935A7AB96A38A45B79
:10016A00FFFFFFFFFFFFFFFFFFFFFFFFFFFFFFFF95
:10017A00FFFFFFFFFFFFFFFFFFFFFFDFD61DCD9D44
:10018A00CDBDCD9DC59DC57DBD5CBCFCB4BBAC5B86
:10019A009BDA93797AD962174976B55CFFFFFFFF3C
:1001AA00FFFFFFFFFFFFFFFFFFFFFFFFFFFFFFFF55
:1001BA00F77FCDDDD5FDD5FDD5FDD61DD5FDCDFD10
:1001CA00CDDDC59CBD3CB4DBAC5B9BBA8B3972B848
:1001DA00621741167B59FFFFFFFFFFFFFFFFFFFF7B
:1001EA00FFFFFFFFFFFFF77FD5DDD61EDE5EDE7E57
:1001FA00DE9EE69EDE9EDE7EDE5DD61DCDBDC55C44
:10020A00B4BBA43A939982F86A7759F6411572F801
:10021A00FFFFFFFFFFFFFFFFFFFFFFFFFFDFD5FE2F
:10022A00D63EDE7EE6DEEF3EEF5FEF5FEF3EEF1E8D
:10023A00E6DEDE7DD61DC59CBD1BAC7B9BDA833911
:10024A0072B8621651B638F5941AFFFFFFFFFFFF26
:10025A00FFFFFFFFDE3ED61EDE3EE6DEF77FFFDF54
:10026A00FFDFFFDFF79FEF1EE6BED65DCDDDC57C63
:10027A00BCFBAC7B9BFA8B597AB8623751B67B18B8
:10028A0030D5DEDEFFFFFFFFFFFFEF5FCDDDD61DBE
:10029A00DE7EEF1EFFBFFFFFFFFFFFDFEF5FE6BE61
:1002AA00D63DCDBDC55CBCFBB49BA43A93B98B3893
:1002BA007AB86A3759D651D693FA49B6FFFFFFFF83
:1002CA00FFFFD61ED5FDD61DDE9EEF5FFFBFFFFFE7
:1002DA00FFDFF77FE6BED61DC59CBD3CB4DBAC7B19
:1002EA00A41A9BDA9379831872976A3759F6499553
:1002FA008B994115D67DFFFFF79FCDDDD5FDD63E03
:10030A00EF1EFFBFFFDFF7BFF75FE6BED61DC57C56
:10031A00BD1CB4BBAC7BA41A9BDA93998B3882D8E8
:10032A0072976A57621659D662366A777B58FFFF08
:10033A00D69DCDDDCDDDD61DE6DEFFDFFFFFEF3E2C
:10034A00DE9ECDFDBD5CB51CB4BBAC7BA43AA3FA62
:10035A009BB993798B187AD872976A57623659F68D
:10036A0051B672D73915FFFFCE3DCDDDCDDDCDBDFE
:10037A00CDDDD5FDDE7DD65DCDBDBD5CB4FCB4DB87
:10038A00AC9BAC5AA43A9BFA9BB993798B1882D846
:10039A007A9772776A37621659D66A9730B4F79F96
:1003AA00D65DCDBDCDBDCDBDCDBDC5BDC59CBD5CEC
:1003BA00BD3CB51CB4FBACBBAC9BAC7AA43AA41A4A
:1003CA009BD993998B5882F87AB772776A576216D3
:1003DA0059F6623638D4D69DD69DCD9DC59DC5BDEC
:1003EA00CDDDCDDDCDDCC59CBD1CB4FBB4BBAC9B67
:1003FA00AC7BAC7AA45AA43A9BF99BB9937883183C
:10040A007AD772976A576A3661F659F638F4CE3D4A
:10041A00CE3DC57DC57DCDDDCDDDC5BCC5BCC57CAC
:10042A00B51CB4DBAC9BAC7BAC5AA45AA45AA43915
:10043A00A3F99BD993988B387AD7729772776A36D1
:10044A00621659D638F4D65DD65DC55CC57DEF1EF9
:10045A00E6DEC57CBD7CBD3CB4FBAC9BAC7BAC5A38
:10046A00A43AA43AA43AA4199BF99BD993988B3835
:10047A007AD7729772776A37621659D638D4E71ED6
:10048A00E71EBD1CBD5CF77FF77FBD5CB51BB4DB07
:10049A00AC9BAC7BAC5AA43AA41AA41AA4199BF933
:1004AA009BD99BB98B7883187AB7729772776A3718
:1004BA00621659B638D4FFFFFFFFB4DCB51CDEBEA6
:1004CA00F79FBD5CACBBAC9BAC7BA43AA41AA3FA65
:1004DA009BDA9BD99BD99BD99BB993788B3882F7A6
:1004EA007AB7729772776A3661F649756256FFFF74
:1004FA00FFFFACBBB4DBC59CEF3ECDDCAC7BA45AA2
:10050A00A43AA3FA9BDA9BB99399939993999398EE
:10051A008B788B3882F77AB7729772776A57623616
:10052A0059F64114AD3BFFFFFFFFCDFDA47BACBBE9
:10053A00CDFDD63DACBBA41A9BFA9BB99B99937986
:10054A008B598B588B588B38831882F77AB77297E6
:10055A0072776A566A3661F651B538D3FFFFFFFFE4
:10056A00FFFFFFFF9BFAA43AAC9BC59CBD1BA41AD4
:10057A00939993798B598B588B38831882F87AD749
:10058A007AB77A97729772776A566A36621659D527
:10059A0038F4A4BAFFFFFFFFFFFFFFFFD65D937990
:1005AA009BB9A41AAC9B9C1A8B798B38831882F856
:1005BA007AD87AD77AB77297729772766A566A3603
:1005CA006236621659D5495449B4FFFFFFFFFFFF4F
:1005DA00FFFFFFFFFFFFACBB82F88B388B798B796B
:1005EA0083187AF87AD772B77297729772766A56C0
:1005FA006A5662366216621559F559D5497430D36E
:10060A00FFDFFFFFFFFFFFFFFFFFFFFFFFFFFFFF10
:10061A009C3A6A7772B772B772B772976A766A76D5
:10062A006A56623662366215621559F559D559D538
:10063A0051B4415330D2EF5EFFFFFFFFFFFFFFFFD0
:10064A00FFFFFFFFFFFFFFFFFFFFACFB59D562353E
:10065A006235623562355A155A1559F559D451D44D
:10066A0051B451B45194497330D24993FFDFFFFF1B
:10067A00FFFFFFFFFFFFFFFFFFFFFFFFFFFFFFFF80
:10068A00FFFFFFFFE71E6AB64154499451B451B4C3
:10069A0051B44993499349734152413230D128B1F7
:1006AA009CB9FFFFFFFFFFFFFFFFFFFFFFFFFFFFF9
:1006BA00FFFFFFFFFFFFFFFFFFFFFFFFFFFFFFFF40
:1006CA00DEBD83B7415330D128B028B02890288F97
:1006DA00288F5233AD19FFFFFFFFFFFFFFFFFFFF18
:1006EA00FFFFFFFFFFFFFFFFFFFFFFFFFFFFFFFF10
:1006FA00FFFFFFFFFFFFFFFFFFFFFFFFFFFFF79E69
:10070A00D69CCE1BCE5BE71DFFFFFFFFFFFFFFFF5F
:10071A00FFFFFFFFFFFFFFFFFFFFFFFFFFFFFFFFDF
:10072A004F925F926F927F928F929F92AF92BF92F7
:10073A00CF92DF92EF92FF920F931F93CF93DF93A3
:10074A0080918303882309F463C0E2E8F3E011820D
:10075A0083818130A1F170F0823009F059C081E0C3
:10076A008093820320E030E0A90160E080E00E94EB
:10077A0099134EC08091840320E1829FF0011124D5
:10078A00EE57FC4F9481911106C020E030E0A90198
:10079A0063E00E949913E2E8F3E0C28130E1C39F6B
:1007AA00E0011124CE57DC4F81E08C8301A4F2A52D
:1007BA00E02D09956C877D878E879F8729C0A2E8DF
:1007CA00B3E01296EC91129740E1E49FF0011124F4
:1007DA00EE57FC4F14828C91882389F1FD01108217
:1007EA0001A4F2A5E02D0995693B7B40810591059D
:1007FA0040F420E030E0A90161E080E00E94991312
:10080A0007C020E030E0A90162E080E00E9499136D
:10081A0080918203882399F0E091AB03F091AC03B5
:10082A000995693B7B408105910548F01092820346
:10083A0020E030E0A90162E080E00E949913C2E85A
:10084A00D3E0F12C6E010F2EF8EC8F2E912CF02DA7
:10085A000F2EF4E6AF2EB12CF02DEE24E3948E0188
:10086A008D819E818436910531F1883C910509F488
:10087A0086C0892B09F0DFC08C81882309F412C154
:10088A00D6019996ED91FC919A9709954C845D84CD
:10089A006E847F84DC01CB0184199509A609B70906
:1008AA004497A105B10508F4C6C0BE82AD828C8109
:1008BA008111F8C0C9C08C81882309F4C5C0D6014A
:1008CA009996ED91FC919A9709954C845D846E8472
:1008DA007F84DC01CB0184199509A609B7098536FD
:1008EA009105A105B10508F4A6C0D6019996ED9126
:1008FA00FC919A970995688B798B8A8B9B8BD60189
:10090A009996ED91FC919A9709954C845D846E8431
:10091A007F849B01AC01241935094609570929012D
:10092A003A01D60194968C9194978823D9F0999696
:10093A00ED91FC919A970995F60165A376A387A391
:10094A0090A7F8EB4F16FBE05F066104710450F0C4
:10095A00D60194961C9220E030E0A9016CE080E078
:10096A000E949913A301920169E08F2D0E949913A5
:10097A00F801968285828481811194C079C08C8124
:10098A00882309F475C0D6019996ED91FC919A973E
:10099A000995488859886A887B88DC01CB018419C3
:1009AA009509A609B7094597A105B10508F443C0F9
:1009BA00D6019996ED91FC919A970995688B798B56
:1009CA008A8B9B8BD6019996ED91FC919A97099502
:1009DA004C845D846E847F849B01AC0124193509A3
:1009EA004609570929013A01D60194968C919497A0
:1009FA008823D9F09996ED91FC919A970995F60179
:100A0A0065A376A387A390A7F8EB4F16FBE05F06D2
:100A1A006104710450F0D60194961C9220E030E0F3
:100A2A00A9016CE080E00E949913A301920169E098
:100A3A008F2D0E949913F8018481811133C0858119
:100A4A0096818436910589F4D6019996ED91FC91A7
:100A5A009A970995F80160877187828793878781BA
:100A6A008F5F8783168215821DC0883C9105D1F459
:100A7A00D6019996ED91FC919A970995F8014484CB
:100A8A005584668477849B01AC012419350946098B
:100A9A0057096AE08F2D0E949913D80116961C9265
:100AAA001E921597F8018781882309F495C0D6010B
:100ABA009996ED91FC919A970995F8014084518491
:100ACA0062847384DC01CB0184199509A609B709EC
:100ADA008C329140A105B10508F47EC0D801179661
:100AEA004C90512C612C712CB1E04B1651046104CD
:100AFA00710441F420E030E0A90164E08F2D0E94E6
:100B0A0099138EC0E2E04E1651046104710441F457
:100B1A0020E030E0A90165E08F2D0E94991380C082
:100B2A00F5E04F1651046104710441F420E030E00D
:100B3A00A90166E08F2D0E94991372C027E0421620
:100B4A0051046104710441F420E030E0A90167E036
:100B5A008F2D0E94991364C03AE043165104610430
:100B6A00710441F420E030E0A90168E08F2D0E9471
:100B7A00991356C0F11017C0D60194961C92B3E08F
:100B8A004B1651046104710429F5F601E4A201A48B
:100B9A00F2A5E02D0995D60195966D937D938D93D7
:100BAA009C93989717C0B1E0FB1214C04A94452849
:100BBA004628472879F4D60194968C9194978823ED
:100BCA0049F094961C9220E030E0A9016BE080E0A5
:100BDA000E949913F8011782F3946096F2E0FF12CB
:100BEA003ECE8091A6038823F1F0C2E8D3E0E9A5BE
:100BFA00FAA509950DA11EA12FA138A5DC01CB01EB
:100C0A00801B910BA20BB30B843F9140A105B10548
:100C1A0050F01092A60307C0D60194961C92DACF20
:100C2A00FF20D1F3C0CFDF91CF911F910F91FF9099
:100C3A00EF90DF90CF90BF90AF909F908F907F9072
:080C4A006F905F904F90089538
:100C5200AEE0B0E0EFE2F6E00C94EC144C016B0174
:100C62001A8219828FEF9FEF9C838B831E821D82D3
:100C720058874F833A872987A12CB12CD6016D90D2
:100C82007C90F301EA0DFB1D808181110FC0D6011A
:100C9200ED93FC938081853209F0D3C13F01BFEF10
:100CA2006B1A7B0AF6017182608219C0853279F370
:100CB200B401082E000C990B0E94B90F4FEFA41A31
:100CC200B40ADCCF8C32ACF08D32F9F489819A818E
:100CD20081609A8389833196D601ED93FC93D60184
:100CE200ED91FC9180818B3269F789819A818460D0
:100CF200F0CF803221F489819A818860EACF8332F1
:100D020051F489819A818061E4CF803321F4898111
:100D12009A818260DECFB701C6010E943E139E8394
:100D22008D8397FF0BC029813A81B1E02B273A834B
:100D320029839195819591099E838D8389819A81D9
:100D420080FF03C08D7F9A838983D601ED91FC9148
:100D5200119780818E3249F43196ED93FC93B7015D
:100D6200C6010E943E139C838B83C6010E945314CA
:100D7200582ED601ED91FC918081082E000C990B22
:100D82000E942317893609F443C084F4833609F498
:100D920002C134F4853209F427C18136E1F030C151
:100DA2008436B1F188360CF4D9C02AC1803709F4EF
:100DB2009AC03CF48E3609F4BCC08F3609F461C087
:100DC2001FC1853709F440C0883709F476C08337DC
:100DD20009F016C1F3C0652D70E0A701CE010B9694
:100DE2000E940000892B09F426C1D601ED91FC91E5
:100DF2001197CF0101968D939C932081AE01455F9F
:100E02005F4FBE016F5F7F4FC4010E94000010C19F
:100E1200652D70E0970141E050E0CE010B960E94F3
:100E2200850D892B09F407C1F60180819181019614
:100E320091838083AE01455F5F4FBE016F5F7F4F3D
:100E4200C4010E943C0CF4C0652D70E0970140E0A3
:100E520050E0CE010B960E94850D892B09F4EBC060
:100E6200D6018D919C91119701968D939C93AE0121
:100E7200455F5F4FBE016F5F7F4FC4010E944F10FD
:100E8200D7C0652D70E0970140E050E0CE010B968F
:100E92000E94850D892B09F4CEC0F60180819181D3
:100EA200019691838083AE01455F5F4FBE016F5F04
:100EB2007F4FC4010E940C0FBBC0652D70E09701EB
:100EC20040E050E0CE010B960E94850D892B09F47B
:100ED200B2C0D601ED91FC911197CF0101968D938D
:100EE2009C9320811CC0970140E050E060EF70E0CD
:100EF200CE010B960E94850D892B09F49CC0F60148
:100F0200808191810196918380838B859C85892B39
:100F120029F420E030E040E654E084C028E7AE0146
:100F2200455F5F4FBE016F5F7F4FC4010E9436096C
:100F32007FC0A501400F511F652D70E09701CE01C2
:100F42000B960E940000892B09F475C0D6018D9181
:100F52009C91119701968D939C9373C0652D70E0BF
:100F6200A701CE010B960E940000892B09F463C0F1
:100F7200D601ED91FC911197CF0101968D939C932F
:100F82002081AE01455F5F4FBE016F5F7F4FC4019D
:100F92000E9400004DC0B0E85B124DC0F601808196
:100FA2009181019691838083D701ED91FC911197F4
:100FB200CF0102968D939C93808120C0B0E85B1292
:100FC2003AC0F60180819181019691838083D70195
:100FD200ED91FC911197CF0102968D939C934081E4
:100FE200518120E030E01EC0B0E85B1224C0F6015F
:100FF200208131812F5F3F4F318320838B870DC04A
:1010020085E28B87D6016D927C921A8219821E82AA
:101012001D828FEF9FEF9C838B8321E030E0AE0136
:10102200455F5F4FBE016F5F7F4FC4010E94C413D3
:101032008A0D9B1D07C0F6018081918101969183E3
:0C1042008083C5012E96EFE00C9423156E
:10104E00579A569A0E9443170E94681681E00E9492
:10105E0032176AE070E080E090E00E9445168BEC5B
:10106E000E94321789E30E9436178CE20E943617CF
:10107E0080E00E94361784E30E94361782E00E94B9
:10108E0036178FEC0E94321780E00E94361781ECE3
:10109E000E94361780E30E94361788EE0E943217A0
:1010AE0085E80E94361780E00E94361788E70E9476
:1010BE0036178AEE0E94321780E00E94361780E0C3
:1010CE000E9436178DEE0E94321784E60E94361764
:1010DE0083E00E94361782E10E94361781E80E9453
:1010EE00361787EF0E94321780E20E94361780EC87
:1010FE000E94321783E20E94361781EC0E9432174B
:10110E0080E10E94361785EC0E9432178EE30E9412
:10111E00361788E20E94361787EC0E94321786E84F
:10112E000E94361786E30E94321788E40E94361713
:10113E008AE30E94321785E50E94361781EB0E94E2
:10114E00321780E00E94361788E10E94361786EB30
:10115E000E94321788E00E94361782E80E943617E6
:10116E0087E20E94361782EF0E94321780E00E94BB
:10117E00361786E20E94321781E00E94361780EE03
:10118E000E9432178FE00E94361781E30E943617B5
:10119E008BE20E9436178CE00E9436178EE00E947A
:1011AE00361788E00E9436178EE40E94361781EFBC
:1011BE000E94361787E30E94361787E00E94361783
:1011CE0080E10E94361783E00E9436178EE00E945F
:1011DE00361789E00E94361780E00E94361781EE9E
:1011EE000E94321780E00E9436178EE00E9436175A
:1011FE0084E10E94361783E00E94361781E10E9437
:10120E00361787E00E94361781E30E94361781EC6D
:10121E000E94361788E40E94361788E00E9436171F
:10122E008FE00E9436178CE00E94361781E30E94F1
:10123E00361786E30E9436178FE00E94361781E13B
:10124E000E94321764E670E080E090E00E9445163E
:0E125E0089E20E94321780E00E94650F089519
:10126C00AFE0B0E0ECE3F9E00C94E9141C016B0185
:10127C005A8349832B83FB018281938184809580DF
:10128C0000811181A680B78097FD02C00D7F02C03E
:10129C0081E090E0E981FA81408051806280738026
:1012AC009801207133273D832C83740104FF08C0FF
:1012BC00411451046104710419F032E0E31AF1088D
:1012CC00F801E870FF27FF83EE8303FF03C0F1E012
:1012DC00EF1AF108F6010084F185E02D3197FF87B4
:1012EC00EE87EA0DFB1D10829C012E193F093987F0
:1012FC002887C801827099279B878A87EB818E2F5C
:10130C00EE0F990B9C01215431093D872C872E85BA
:10131C003F852230310530F48C819D81892B09F079
:10132C0042C05CC0411451046104710461F18E85AA
:10133C009F8501979F878E87C2018F7099278A306E
:10134C00910514F4C09602C0895A9F4FEC85FD8517
:10135C007A9748F49C012062215631092A313105D3
:10136C0010F40E941217EE85FF85EA0DFB1D808399
:10137C00F1E0EF1AF10884E076946794579447945F
:10138C008A95D1F7C4CF888599858E0D9F1D181627
:10139C0019066CF21E141F040CF0BECFEA85FB85F7
:1013AC00EF2B29F6B9CFE981FA8180819181A28155
:1013BC00B381892B8A2B8B2B89F0EE85FF85EA0D67
:1013CC00FB1D31972B8120838E859F8502979F87EC
:1013DC008E87FC01EA0DFB1D80E38083EE81FF818B
:1013EC00EF2B59F02E853F85215031093F872E87F1
:1013FC00F901EA0DFB1D80E28083F60140855185E1
:10140C00415051092E853F85421B530BB9016A0D82
:10141C007B1D9401C1010E94D7119C01F1018081B7
:10142C00918190FF06C0F601828193818217930708
:0C143C000CF4C9012F96E2E10C9420157D
:101448000F931F93CF93DF930E94520E0E94950330
:10145800809187048230A1F0833009F45FC0813025
:1014680009F08AC082E080938704E6E2F4E082E033
:1014780090E0918780878EEF9FEF938782877CC06B
:10148800E6E2F4E0628173812285338540913A0473
:1014980050913B0486819781820F931F860F971F77
:1014A8008417950708F468C0248135818085918563
:1014B800820F931F2081318136952795820F931FC4
:1014C8002091380430913904281739074CF4E091F9
:1014D8003404F09135042E0F3F1F8217930720F034
:1014E80083E08093870448C0461B570B50932D0414
:1014F80040932C0480913C0490913D04892B39F44D
:101508008EEF9FEF909331048093300435C08CEFB9
:101518009FEF90933104809330042EC006E214E0CC
:10152800F8011186108613861286C4E3D4E0198662
:1015380018861B861A8688E196EC0E941D1168EEB3
:1015480073E080E090E00E9445168FEF9FEF0E94C5
:101558001D1188E190E0F801958384838CEA90E07E
:10156800978386838AE090E09D838C8388EC90E063
:101578009F838E83109287040E94D416009173046F
:10158800109174042091750430917604DC01CB012C
:10159800801B910BA20BB30B0A97A105B105F0F0C4
:1015A8000E94D41660937304709374048093750436
:1015B8009093760484E394E00E94AE0C6FEF7FEF83
:1015C80084E394E00E941B0D86E294E00E94B00E32
:1015D8006FEF7FEF86E294E00E941B0DDF91CF91C1
:0615E8001F910F91089510
:1015EE002F923F924F925F926F927F928F929F9225
:1015FE00AF92BF92CF92DF92EF92FF920F931F9313
:10160E00CF93DF93CDB7DEB72E970FB6F894DEBF2C
:10161E000FBECDBFE82FEE2009F49AC0AE2CB12C30
:10162E00A69E4001A79E900CB69E900C11242401FC
:10163E00420E531E81E4481681E0580608F088C019
:10164E00A49ED001A59EB00DB49EB00D1124A00F86
:10165E00B11FA13FB10508F07BC04115510509F43A
:10166E0077C08E2D38013A8329835C874B87788724
:10167E006F83880C991C7B01EE0CFF1CFE82ED82A1
:10168E00CE2ED92E8501000F111F815090E09C01A6
:10169E00220F331F1C821B822E5F3F4FFC0131969F
:1016AE00FA87E987F1E04F1A51083E872D8744C02B
:1016BE00F901949131968491AD85BE85A40FB51F25
:1016CE00FA01908381833296EA17FB07D1F72E5FDA
:1016DE003F4F400F511F6217730751F7E984FA8489
:1016EE00E60CF71C13019101A201B10189819A81C7
:1016FE000E941012B40182E091E00E943A176AE053
:10170E0070E080E090E00E947916FFEF2F1A3F0AFA
:10171E002E143F0441F72B813C812F5F3F4F3C83BA
:10172E002B836A0C7B1CED80FE80CE0CDF1CEB84C1
:10173E00FC84E216F30661F0EF80F884EF2871F274
:10174E0042E051E06D817E816C0D7D1D9601B0CF22
:10175E002E960FB6F894DEBF0FBECDBFDF91CF91A0
:10176E001F910F91FF90EF90DF90CF90BF90AF90B1
:10177E009F908F907F906F905F904F903F902F90A3
:02178E000895BC
:101790006F927F928F929F92AF92BF92CF92DF9281
:1017A000EF92FF920F931F93CF93DF93CDB7DEB7E6
:1017B000C059D1400FB6F894DEBF0FBECDBF7A013D
:1017C000590121503109260F371F41505109480F47
:1017D000591F0E941012AE9C6001AF9CD00CBE9CA1
:1017E000D00C1124E12CF12CFE013196CE018F5644
:1017F0009E4F1083018332968E179F07D1F75F9A11
:10180000C114D104E104F10409F10F2EF8EC6F2E9C
:10181000F02D712C00E010E04601570189ECC8164C
:10182000D104E104F10420F0862C972CA02EB12ED7
:10183000B401660F771FCE0101960E943316AA24C9
:10184000BB24C818D908EA08FB0831F7C057DE4F97
:101850000FB6F894DEBF0FBECDBFDF91CF911F91C1
:101860000F91FF90EF90DF90CF90BF90AF909F903F
:081870008F907F906F900895A6
:10187800A2E0B0E0E2E4FCE00C94E9143C016B0166
:10188800FB0122813381A480B580808191819A8374
:10189800898386809780FA01208031804280538036
:1018A800B201A10157FE07C044275527BA014219C2
:1018B80053096409750937FD03C08D7F9A838983AD
:1018C800950157FC05C0898182FD02C083FF02C0D3
:1018D80021503109CE0101967C010AE010E0C601D1
:1018E8000E94ED0D57FC03C0298122FF0AC0019711
:1018F800F401E80FF91F57FC02C02BE209C02DE2E2
:1019080007C023FF06C00197F401E80FF91F20E282
:10191800208309811A81F60140855185415051097A
:10192800481B590BB401680F791F9501C3010E9428
:10193800D7119C01F3018081918190FF06C0F601C7
:1019480082819381821793070CF4C9012296E2E100
:041958000C942015B6
:10195C00DC0114968D919C9115972D913C911197CA
:10196C00AC01420F531F40345140A0F018964D91DA
:10197C005C911997141615066CF480E491E0821BA7
:10198C00930B15969C938E93149719961C921E92FA
:10199C00189711C01816190674F018968D919C9111
:1019AC001997992344F415961C921E921497199624
:1019BC001C921E92189716968D919C9117971296C1
:1019CC002D913C911397AC01420F531F403F510591
:1019DC00A0F01A964D915C911B97141615066CF499
:1019EC0080EF90E0821B930B17969C938E93169727
:1019FC001B961C921E921A9711C01816190674F099
:101A0C001A968D919C911B97992344F417961C92CE
:101A1C001E9216971B961C921E921A971C96ED916D
:0A1A2C00FC911D97CD010995089566
:101A3600EF92FF920F931F93CF93DF93EC017B01FD
:101A4600EC85FD850995E885F9851E161F066CF45B
:101A56002A813B816E817F818C819D818701AF01C7
:101A66008E1B9F0B0E94C80B13C0FF238CF42A8188
:101A76003B81442755274E1B5F0B6E817F81EC818E
:101A8600FD818881998187018E0F9F1F0E94C80B57
:101A96002A853B851216130664F4488159816E81A6
:101AA6007F81621B730B87018C819D810E94C80B0D
:101AB60012C0332384F43195219531094881598127
:101AC6006E817F818A819B81680F791F87018C8156
:101AD6009D810E94C80B2C813D8188859985820F46
:101AE600931F9D838C832E813F818A859B85820FE0
:101AF600931F9F838E83DF91CF911F910F91FF904C
:041B0600EF900895BF
:101B0A00CF93DF93DC01F90168387105F1F05CF4D9
:101B1A006138710561F164387105A1F160387105A8
:101B2A0009F051C02FC0603C710509F441C0603F03
:101B3A007105F1F1603A710509F045C0C081D181A2
:101B4A00CE0102969183808325C0C081D181CE01C6
:101B5A00029691838083452B39F04881042E000C2C
:101B6A00550B660B770B1CC0488150E029C0C08119
:101B7A00D181CE01049691838083488159816A81FB
:101B8A007B810EC0C081D181CE0102969183808370
:101B9A00452BA1F048815981052E000C660B770B65
:101BAA004D935D936D937C93139781E090E00DC004
:101BBA00C081D181CE010296918380834881598167
:101BCA0060E070E0EDCF80E090E0DF91CF91089582
:101BDA00A0E0B0E0E3EFFDE00C94EB14DC01280197
:101BEA001696AD90BC901797F70180819181129655
:101BFA00ED91FC9113971896CD91DC911997219745
:101C0A00F7FF02C0E1E0F0E0CA0DDB1D18826901AE
:101C1A00A1E0B0E08F01021B130B4C01F2E08F220E
:101C2A009924052C000C66087708CE018A199B09AD
:101C3A00CA15DB0519F1411551056105710589F0D0
:101C4A00CB01BA01A30192010E941114CA01A62F65
:101C5A00B72F605D6A9341E0C41AD108A901BC019B
:101C6A00E4CF98012C0D3D1D121613064CF31C14DB
:101C7A001D0434F48114910419F702C080E090E045
:101C8A00AB2B31F4F701208131812F7E3183208300
:0A1C9A00CDB7DEB7E0E10C9422158F
:101CA4000F931F93CF93DF93E0917F04F09180040F
:101CB400099500916B0410916C0420916D0430918E
:101CC4006E04DC01CB01801B910BA20BB30B0091C2
:101CD4006F04109170042091710430917204801784
:101CE4009107A207B307A8F1E0917F04F091800463
:101CF400099560936B0470936C0480936D049093C6
:101D04006E048BE30E94B915C8E1D4E099838883FB
:101D14008DE30E94B9159B838A838FE30E94B915D2
:101D24009D838C8383E40E94B9159F838E8385E40D
:101D34000E94B9159987888787E40E94B9159B8703
:101D44008A8781E40E94B9159D878C87CE010E9401
:0C1D54004717DF91CF911F910F91089568
:101D6000FC012085318512161306B4F4408151819F
:101D700084819581820F931F840F951F8034914039
:101D800058F03195219531093187208780E491E021
:101D9000841B950B9583848380859185992374F4A6
:101DA00024813581280F391F121613063CF09195B6
:101DB00081959109918780871582148222853385C8
:101DC00012161306B4F44281538186819781820FE3
:101DD000931F840F951F803F910558F031952195F1
:101DE00031093387228780EF90E0841B950B97831E
:101DF000868382859385992374F426813781280F01
:101E0000391F121613063CF091958195910993871D
:081E10008287178216820895F3
:101E1800A2E0B0E0E2E1FFE00C94ED144C016B01AC
:101E2800FB012281338164807580808191819A834E
:101E38008983A680B78037FD03C08D7F9A83898305
:101E4800FA014081518162817381CE0101967C0142
:101E580008E010E09301C6010E94ED0D298124FFDE
:101E680006C00197F501E80FF91F20E320832981B7
:101E780023FF06C00197F501E80FF91F20E2208330
:101E880009811A81F6014085518541505109481B45
:101E9800590BB501680F791F9301C4010E94D7112E
:101EA8009C01F4018081918190FF06C0F601828136
:101EB8009381821793070CF4C9012296EEE00C94E3
:021EC8002415DF
:101ECA00CF93C82F86E30E94321761E070E080E06A
:101EDA0090E00E944516C130B1F028F0C23019F1E5
:101EEA00C33089F13FC088E40E94361780EF90E042
:101EFA0090937E0480937D0480E491E090937C0427
:101F0A0080937B042FC088E20E94361780E491E018
:101F1A0090937E0480937D0480EF90E090937C04FC
:101F2A0080937B041FC088E80E94361780EF90E0F8
:101F3A0090937E0480937D0480E491E090937C04E6
:101F4A0080937B040FC088EE0E94361780E491E0EC
:101F5A0090937E0480937D0480EF90E090937C04BC
:081F6A0080937B04CF910895E0
:101F72000F931F93CF93DF93DB01109719F48FEF29
:101F82009FEF3DC02D913C91119730FF25C01696D1
:101F92004D915C91179714962D913C91159742178C
:101FA200530778F41296ED91FC9113978083129661
:101FB2002D913C9113972F5F3F4F13963C932E9395
:101FC200129716962D913C9117972F5F3F4F1796B8
:101FD2003C932E93169713C01C96ED91FC911D977E
:101FE200309769F2EB01092F182F0995892B39F6E1
:101FF2008E819F8101969F838E83812F902FDF9107
:08200200CF911F910F91089589
:10200A00FF920F931F93CF93DF9342E062E08AE53A
:10201A0094E00E949610E89AC9E6D0E0888181602F
:10202A00888304E514E0FF24F394F801F38242E084
:10203A0063E08AE594E00E949610E99A88818460B8
:10204A008883F801F4828081882319F0813041F075
:10205A001AC099B192FB222720F991E0922706C073
:10206A0099B193FB222720F991E09227992359F0FD
:10207A00E4E5F4E091E095830180F281E02D309768
:10208A0011F062E009957894DF91CF911F910F9139
:04209A00FF90089516
:10209E00A2E0B0E0E5E5F0E10C94ED145C016B011B
:1020AE00FB012281338184809580808191819A8386
:1020BE0089836680778037FD03C08D7F9A838983FD
:1020CE00FA014081518162817381CE0101967C01BA
:1020DE000AE010E09401C6010E94ED0D09811A81FB
:1020EE00F6014085518541505109481B590BB301EA
:1020FE00680F791F9401C5010E94D7119C01F5014B
:10210E008081918190FF06C0F601828193818217B2
:0E211E0093070CF4C9012296EEE00C942415F0
:10212C004130E1F018F0423039F10895DC01ED91C5
:10213C00FC911197408121E030E002C0220F331F47
:10214C006A95E2F72095342F322330831296ED9165
:10215C00FC9113978081282320830895DC01ED9155
:10216C00FC91208181E090E002C0880F991F6A9554
:10217C00E2F7822B80830895DC01ED91FC9111979D
:10218C00408121E030E002C0220F331F6A95E2F754
:10219C00322F3095342330831296ED91FC911397A6
:0821AC008081282B2083089597
:1021B400EF92FF920F931F93CF93DF93CDB7DEB7C8
:1021C400C054D1090FB6F894DEBF0FBECDBF40E4B2
:1021D40050E0BC01CE0101960E946F1521961FAEFE
:1021E400219766E674E0CE0101960E945C118C0191
:1021F40066E674E080E090E00E945C117C0166E693
:1022040074E080E090E00E945C110115110529F052
:10221400AC01B701C8010E94BE16C05CDF4F0FB607
:10222400F894DEBF0FBECDBFDF91CF911F910F9108
:06223400FF90EF900895F9
:10223A000F931F93CF93DF93CDB7DEB7C052D3402E
:10224A000FB6F894DEBF0FBECDBF182F092F20EFAF
:10225A0030E040E451E060E070E080E090E00E940D
:10226A001012902F812FFE0131969E012F5D3C4F57
:10227A009083818332962E173F07D1F700E010E052
:10228A0060E273E0CE0101960E943A170F5F1F4F7A
:10229A00003C1105A9F7C05EDC4F0FB6F894DEBF0B
:0E22AA000FBECDBFDF91CF911F910F91089510
:1022B8000F931F93CF93DF93EC018B01892B31F49C
:1022C800C0918504D0918604209751F1B801CE01C0
:1022D8000E94CC14C80FD91F8881811105C01092A3
:1022E8008604109285041DC0B801CE010E94AF1467
:1022F800FE01E80FF91FF0938604E09385048081BE
:10230800882341F0CF010196909386048093850439
:10231800108204C01092860410928504CE0102C077
:0E23280080E090E0DF91CF911F910F9108951A
:10233600A2E8B0E0E1EAF1E10C94EF145C014A0195
:10234600CF57DF4F79836883C158D040C12CD12C39
:10235600CF57DF4FE881F981C158D040808188236B
:10236600E9F07401860120E830E0AE014F5F5F4F6F
:10237600BE016F577F4FC5010E9429068C0D9D1D1A
:102386008C159D054CF48FE490E0909301018093A9
:1023960000018FEF9FEF03C06C01DACFC601CE5765
:0823A600DF4FECE00C9426155A
:1023AE00A0E0B0E0EDEDF1E10C94EF146C015B01F7
:1023BE007A01E901480181E08822992400FD03C0D9
:1023CE004217530750F0A701B501C6010E9492149F
:1023DE00EC16FD0610F0C70117C08E010E191F096D
:1023EE000115110541F0B60180E290E00E94B90F8F
:1023FE0001501109F5CF8114910429F4A701B501FB
:10240E00C6010E949214CE01CDB7DEB7ECE00C945B
:02241E00261581
:10242000EF92FF920F931F93CF93DF9300D000D0D2
:10243000CDB7DEB7F62EE72E122F032F99838A83AE
:102440005B834C838AE20E94321764E070E0CE0125
:1024500001960E943A17E982FA820B831C838BE271
:102460000E94321764E070E0CE0101960E943A1794
:102470008CE20E9432170F900F900F900F90DF9117
:0C248000CF911F910F91FF90EF900895F5
:10248C000F931F93CF93DF93E9EBF0E090819D7F47
:10249C00908390819E7F908398E49093B800ECEBAE
:1024AC00F0E09081946090838823C1F0C0E00CEB45
:1024BC0010E0D4E98C2F880F0E943B15882329F05B
:1024CC008C2F0E94A516F801D0838FE39CE901970D
:1024DC00F1F700C00000CF5FCF3761F7DF91CF91EC
:0624EC001F910F910895FD
:1024F2000F931F93CF93DF938C010F5F1F4FFC014C
:1025020080816115710519F48FEF9FEF1EC0FB01E9
:1025120024853585232BC1F3EB01EC85FD85BE01B6
:10252200882339F00995892B79F7F80181918F0178
:10253200F4CF8AE0099521E030E0892B11F420E004
:1025420030E088279927821B930BDF91CF911F914F
:042552000F91089548
:102556001F920F920FB60F9211242F933F934F9312
:102566005F936F937F938F939F93AF93BF93EF93F5
:10257600FF93E0915504F0915604309749F04A993B
:1025860004C060E080E0099503C061E080E0099541
:10259600FF91EF91BF91AF919F918F917F916F9135
:1025A6005F914F913F912F910F900FBE0F901F900B
:0225B600189576
:1025B8001F920F920FB60F9211242F933F934F93B0
:1025C8005F936F937F938F939F93AF93BF93EF9393
:1025D800FF93E0915504F0915604309749F04B99D8
:1025E80004C060E081E0099503C061E081E00995DD
:1025F800FF91EF91BF91AF919F918F917F916F91D3
:102608005F914F913F912F910F900FBE0F901F90A8
:02261800189513
:10261A001092C50087E68093C400E1ECF0E0808167
:10262A0080618083808188608083808180688083E4
:10263A0080818B7F8083E2ECF0E0808184608083FC
:10264A0080818260808380818F7D808380818F7E7C
:10265A0080838081877F8083E0918104F091820466
:10266A0088E094E09183808382E494E00E940917D1
:02267A000895C1
:10267C00DC01ED91FC91119780818A3221F080E090
:10268C0090E03AE00EC03196ED93FC93DB01ED91B6
:10269C00FC911197CF0102968D939C93808191812F
:1026AC000895ED91FC911197208120532A3068F404
:1026BC00389FA001399F500D1124CA01820F911D22
:0C26CC0031961196FC93EE93ECCF08952C
:1026D8001F921FB61F9211248F939F93EF93FF931E
:1026E8008091C600E0918904EF31A8F491E09E0F33
:1026F80090938904F0E0E355FC4F80838A3069F4B5
:10270800E92FF0E0E355FC4F108281E080938804C4
:102718001092890402C010928904FF91EF919F9151
:0A2728008F911F901FBE1F9018959F
:1027320090918704911103C091E0909387048111D5
:1027420010C0633011F0693039F48AE090E0909360
:102752003D0480933C04089510923D0410923C0481
:102762000895813079F4633011F0693039F486EFDD
:102772009FEF90933D0480933C04089510923D0492
:0627820010923C040895D2
:10278800A0E0B0E0EAECF3E10C94F1147C01FB0169
:10279800EA01C901A280B380C480D580008111817B
:1027A800209711F4CDE4D4E0009719F4CE010E94EB
:1027B8009716B7FC04C0A816B90608F4C501960117
:1027C800AC01BE01C7010E94D711CDB7DEB7EAE060
:0427D8000C94281520
:1027DC001F921FB61F9211248F939F93AF93BF9399
:1027EC008091770490917804A0917904B0917A0447
:1027FC000196A11DB11D8093770490937804A0934A
:10280C007904B0937A04BF91AF919F918F911F90EF
:06281C001FBE1F9018957D
:10282200A1E21A2EAA1BBB1BFD010DC0AA1FBB1FD2
:10283200EE1FFF1FA217B307E407F50720F0A21B44
:10284200B30BE40BF50B661F771F881F991F1A94B1
:1028520069F760957095809590959B01AC01BD01DB
:04286200CF01089505
:1028660084ED96E10E94051584ED96E10E94F51629
:102876000E94270883E00E94650F8FEF9FEF0E945A
:102886001D11E0914004F091410484E394E0099520
:10289600E0913204F091330486E294E009950895BC
:1028A600CF93DF93EC0190E0E92FF0E0EE0FFF1FEE
:1028B600E353FC4F8081811102C081810EC0A88143
:1028C600B9812C91821305C091811196B983A88391
:1028D60001C09F5F9B3040F3892FDF91CF91089510
:1028E600CF93DF93C82FD62F880F0E943B158D2FCD
:1028F6000E9421168C2F880F81600E943B1584E868
:102906008093BC00ECEBF0E080818823ECF78091AB
:0E291600BB0094E99093BC00DF91CF9108952F
:10292400A0E0B0E0E8E9F4E10C94F3146C01EB01ED
:102934008A017B01E40EF51ECE15DF0541F0899175
:10294400B601082E000C990B0E94B90FF5CFC801EF
:0A295400CDB7DEB7E8E00C942A15B9
:10295E00A0E0B0E0E5EBF4E10C94F3148C016B0114
:10296E00EC017E01E01AF10A6991662341F0062E10
:10297E00000C770BC6010E94B216892B91F3C7018A
:0A298E00CDB7DEB7E8E00C942A157F
:10299800A0E0B0E0E2EDF4E10C94F3148C016B01DB
:1029A800EC017E01E01AF10A6991662341F0062ED6
:1029B800000C770BC6010E94B216892B91F7C7014C
:0A29C800CDB7DEB7E8E00C942A1545
:1029D2002F923F924F925F926F927F928F929F922D
:1029E200AF92BF92CF92DF92EF92FF920F931F931B
:1029F200CF93DF93CDB7DEB7CA1BDB0B0FB6F894CC
:082A0200DEBF0FBECDBF099439
:102A0A00CF93DF9300D00F92CDB7DEB79093AC038C
:102A1A008093AB0319828BE297E19B838A83CE0171
:102A2A0001960E94C9160E9405100F900F900F90F0
:062A3A00DF91CF91089529
:102A40002A88398848885F846E847D848C849B843E
:102A5000AA84B984C884DF80EE80FD800C811B814C
:102A6000AA81B981CE0FD11D0FB6F894DEBF0FBE7B
:062A7000CDBFED01089549
:102A760094EA9093BC00ECEBF0E090819923ECF79C
:102A86008093BB0084E88093BC00ECEBF0E080818F
:102A96008823ECF79091B900987F81E0983109F08E
:042AA60080E008952F
:102AAA0085B5877F85BD84B5826084BD84B5816024
:102ABA0084BD85B58B7F85BD85B5826085BD85B5AD
:102ACA00816085BD89EF87BDEEE6F0E08081826096
:042ADA008083089558
:102ADE00CF93DF93EB01FC014115510581F041507D
:102AEE005109DF01119629912083FD012111F4CFA7
:102AFE004A0F5B1F4A175B0711F01D92FBCFDF9148
:042B0E00CF910895C6
:102B1200A0E0B0E0EFE8F5E10C94F914AE014B5FF0
:102B22005F4FFA0161917191AF01E0918104F091DF
:102B32008204808191810E94A115E2E00C943015FB
:102B4200A2E0B0E0E7EAF5E10C94F7148C015A83B5
:102B52004983AE014F5F5F4F0E949B11F8012081B4
:102B620024FF02C08FEF9FEF2296E4E00C942E1513
:102B7200CF93DF93D82F682F88E60E947314C82F53
:102B820061E06D0F88E60E9473142C2F30E0322F23
:0E2B92002227A901482BCA01DF91CF91089597
:102BA000EF920F931F93FC010681178124813581D9
:102BB0004281538160817181EE24E3948AE091E047
:0C2BC0000E94F70A1F910F91EF900895FA
:102BCC00239A259A229A2A9A24982C9A8DB5816058
:102BDC008DBD8CB58D7F8CBD8CB58E7F8CBD8CB531
:0C2BEC0080618CBD8CB580648CBD0895A8
:102BF800CF93DF93D62FC42F880F0E943B158D2FBC
:102C08000E9421168C2F0E94211684E98093BC0013
:062C1800DF91CF91089549
:102C1E000F931F93FC012281338140815181668184
:102C2E00778100E010E0848195810E94C80B1F918E
:042C3E000F91089555
:102C42008093BB0084E88093BC00ECEBF0E08081D1
:102C52008823ECF79091B900987F81E0983209F0CF
:042C620080E0089571
:102C66002A986115710561F0FC01680F791F919131
:102C76009EBD0DB407FEFDCF8EB5E617F707B9F773
:042C86002A9A0895E9
:102C8A00611571058105910561F0DC01CB01EFE960
:102C9A00FFE03197F1F700C000000197A109B109DF
:042CAA00B1F70895E1
:102CAE000E9455150E940D1380E00E9446120E944C
:102CBE00E6150E94331478940E94DF160E94240AAF
:022CCE00FBCF3A
:102CD0005E986AE070E080E090E00E9445162A98D5
:102CE0006AE070E080E090E00E9445165E9A2A9AC1
:022CF000089545
:102CF200611571058105910551F0DC01CB0125E0DB
:102D02002A95F1F700000197A109B109C1F70895C9
:102D1200DC01FB019D912191921303C09111FACF25
:0C2D2200292F892F90E0821B9109089551
:102D2E00FC01AF014F5F5F4F2081222311F0FA01AA
:0C2D3E00F8CF9F01281B390BC901089534
:102D4A001F928F9383EE93E09F938F930E9489152E
:0A2D5A000F900F900F900F90089556
:102D6400FC012E2F9F2F8191861721F08111F9CF1D
:082D740090E00895822F0895FC
:102D7C0068EF73E00E948916892B21F48EEF93E0A3
:062D8C000E9409170895E2
:102D9200FC0180819181A281809354049093550417
:062DA200A0935604089501
:102DA800F8946091770470917804809179049091F7
:062DB8007A0478940895EE
:102DBE0080918804882331F08DEA93E00E943E17BB
:062DCE0010928804089534
:102DD400EC010E9449170E944817CE010E944A172D
:062DE400CE010E9445171C
:102DEA009093800480937F0440E06BE688E60E941B
:042DFA00FC15089527
:102DFE00E0ECF0E0908195FFFDCF8093C60080E07F
:042E0E0090E00895B3
:102E1200E0918104F0918204608171810E947912B3
:022E2200089511
:102E24009C01215631092A31310510F48F759927F7
:022E34000895FF
:102E36002A988EBD0DB407FEFDCF8EB52A9A089549
:102E46009C01215431092A31310508F48062089524
:0E2E5600E2E8F3E091E09183828363830895C4
:082E64005F980E941B170895FE
:082E6C005F9A0E941B170895F4
:082E74005F9A0E9433160895D5
:062E7C000E94DA10089527
:042E82000C940000AC
:042E86005E9A0895B3
:042E8A000E9483001F
:022E8E000895A5
:022E90000895A3
:022E92000895A1
:022E940008959F
:102E960068076C094C836A9074A07AC000806888C1
:062EA60000846C82008133
:102EAC003E3E204932432061646472203A203078DF
:052EBC0025780D0A005D
:102EC10040554152540040554152542C6F6B0D00F6
:102ED100030000000000000000000000FF160000D9
:0E2EE1001C001C001800AC0000000000D01502
:0E2EEF003C000A000A00C800000000000F1698
:0B2EFD007561727420696E69740D002D
:072F0800286E756C6C2900B6
:062F0F002A002B0029003E
:062F1500286E696C290022
:052F1B00202C0D0A004E
:042F20000A000000A3
:022F2400F000BB
:022F2600400168
:022F2800830420
:00000001FF
