:100000000C9461000C94A2120C94D3120C944D1712
:100010000C944D170C944D170C944D170C944D17D0
:100020000C944D170C944D170C944D170C944D17C0
:100030000C944D170C944D170C94E2130C944D171F
:100040000C944D170C944D170C9463130C944D178E
:100050000C944D170C944D170C944D170C944D1790
:100060000C944D170C944D170100038280038203FA
:10007000C6002EAE03C604118004110437002EF210
:10008000043704458004450475002F18047504875F
:100090008004870498002F480498049C80049C04E2
:1000A000A0002F5904A004AC8004AC04B0002F5D64
:1000B00004B004B68004B604B8002F6104B804BECE
:1000C000800011241FBECFEFD8E0DEBFCDBFE8E631
:1000D000F0E040E017C0B591A591359125910591CB
:1000E00007FD0CC095918591EF01F92FE82F059040
:1000F0000D92A217B307D9F7FE0104C01D92A217F3
:10010000B307E1F7E13CF40731F70E94BA130C940E
:06011000E816F894FFCF91
:10011600FFFFFFFFFFFFFFFFFFFFFFFFFFFFFFFFE9
:10012600FFFFF79FDE7ECDBDB4FCAC7CAC3BAC5B89
:10013600BD1CD65DFFFFFFFFFFFFFFFFFFFFFFFFB9
:10014600FFFFFFFFFFFFFFFFFFFFFFFFFFFFFFFFB9
:10015600FFFFFFFFFFFFEF1FCDBDBD3DBD1CBD1C5B
:10016600B4DCB49BAC5B9BDA935A7AB96A38A45B6D
:10017600FFFFFFFFFFFFFFFFFFFFFFFFFFFFFFFF89
:10018600FFFFFFFFFFFFFFFFFFFFFFDFD61DCD9D38
:10019600CDBDCD9DC59DC57DBD5CBCFCB4BBAC5B7A
:1001A6009BDA93797AD962174976B55CFFFFFFFF30
:1001B600FFFFFFFFFFFFFFFFFFFFFFFFFFFFFFFF49
:1001C600F77FCDDDD5FDD5FDD5FDD61DD5FDCDFD04
:1001D600CDDDC59CBD3CB4DBAC5B9BBA8B3972B83C
:1001E600621741167B59FFFFFFFFFFFFFFFFFFFF6F
:1001F600FFFFFFFFFFFFF77FD5DDD61EDE5EDE7E4B
:10020600DE9EE69EDE9EDE7EDE5DD61DCDBDC55C37
:10021600B4BBA43A939982F86A7759F6411572F8F5
:10022600FFFFFFFFFFFFFFFFFFFFFFFFFFDFD5FE23
:10023600D63EDE7EE6DEEF3EEF5FEF5FEF3EEF1E81
:10024600E6DEDE7DD61DC59CBD1BAC7B9BDA833905
:1002560072B8621651B638F5941AFFFFFFFFFFFF1A
:10026600FFFFFFFFDE3ED61EDE3EE6DEF77FFFDF48
:10027600FFDFFFDFF79FEF1EE6BED65DCDDDC57C57
:10028600BCFBAC7B9BFA8B597AB8623751B67B18AC
:1002960030D5DEDEFFFFFFFFFFFFEF5FCDDDD61DB2
:1002A600DE7EEF1EFFBFFFFFFFFFFFDFEF5FE6BE55
:1002B600D63DCDBDC55CBCFBB49BA43A93B98B3887
:1002C6007AB86A3759D651D693FA49B6FFFFFFFF77
:1002D600FFFFD61ED5FDD61DDE9EEF5FFFBFFFFFDB
:1002E600FFDFF77FE6BED61DC59CBD3CB4DBAC7B0D
:1002F600A41A9BDA9379831872976A3759F6499547
:100306008B994115D67DFFFFF79FCDDDD5FDD63EF6
:10031600EF1EFFBFFFDFF7BFF75FE6BED61DC57C4A
:10032600BD1CB4BBAC7BA41A9BDA93998B3882D8DC
:1003360072976A57621659D662366A777B58FFFFFC
:10034600D69DCDDDCDDDD61DE6DEFFDFFFFFEF3E20
:10035600DE9ECDFDBD5CB51CB4BBAC7BA43AA3FA56
:100366009BB993798B187AD872976A57623659F681
:1003760051B672D73915FFFFCE3DCDDDCDDDCDBDF2
:10038600CDDDD5FDDE7DD65DCDBDBD5CB4FCB4DB7B
:10039600AC9BAC5AA43A9BFA9BB993798B1882D83A
:1003A6007A9772776A37621659D66A9730B4F79F8A
:1003B600D65DCDBDCDBDCDBDCDBDC5BDC59CBD5CE0
:1003C600BD3CB51CB4FBACBBAC9BAC7AA43AA41A3E
:1003D6009BD993998B5882F87AB772776A576216C7
:1003E60059F6623638D4D69DD69DCD9DC59DC5BDE0
:1003F600CDDDCDDDCDDCC59CBD1CB4FBB4BBAC9B5B
:10040600AC7BAC7AA45AA43A9BF99BB9937883182F
:100416007AD772976A576A3661F659F638F4CE3D3E
:10042600CE3DC57DC57DCDDDCDDDC5BCC5BCC57CA0
:10043600B51CB4DBAC9BAC7BAC5AA45AA45AA43909
:10044600A3F99BD993988B387AD7729772776A36C5
:10045600621659D638F4D65DD65DC55CC57DEF1EED
:10046600E6DEC57CBD7CBD3CB4FBAC9BAC7BAC5A2C
:10047600A43AA43AA43AA4199BF99BD993988B3829
:100486007AD7729772776A37621659D638D4E71ECA
:10049600E71EBD1CBD5CF77FF77FBD5CB51BB4DBFB
:1004A600AC9BAC7BAC5AA43AA41AA41AA4199BF927
:1004B6009BD99BB98B7883187AB7729772776A370C
:1004C600621659B638D4FFFFFFFFB4DCB51CDEBE9A
:1004D600F79FBD5CACBBAC9BAC7BA43AA41AA3FA59
:1004E6009BDA9BD99BD99BD99BB993788B3882F79A
:1004F6007AB7729772776A3661F649756256FFFF68
:10050600FFFFACBBB4DBC59CEF3ECDDCAC7BA45A95
:10051600A43AA3FA9BDA9BB99399939993999398E2
:100526008B788B3882F77AB7729772776A5762360A
:1005360059F64114AD3BFFFFFFFFCDFDA47BACBBDD
:10054600CDFDD63DACBBA41A9BFA9BB99B9993797A
:100556008B598B588B588B38831882F77AB77297DA
:1005660072776A566A3661F651B538D3FFFFFFFFD8
:10057600FFFFFFFF9BFAA43AAC9BC59CBD1BA41AC8
:10058600939993798B598B588B38831882F87AD73D
:100596007AB77A97729772776A566A36621659D51B
:1005A60038F4A4BAFFFFFFFFFFFFFFFFD65D937984
:1005B6009BB9A41AAC9B9C1A8B798B38831882F84A
:1005C6007AD87AD77AB77297729772766A566A36F7
:1005D6006236621659D5495449B4FFFFFFFFFFFF43
:1005E600FFFFFFFFFFFFACBB82F88B388B798B795F
:1005F60083187AF87AD772B77297729772766A56B4
:100606006A5662366216621559F559D5497430D361
:10061600FFDFFFFFFFFFFFFFFFFFFFFFFFFFFFFF04
:100626009C3A6A7772B772B772B772976A766A76C9
:100636006A56623662366215621559F559D559D52C
:1006460051B4415330D2EF5EFFFFFFFFFFFFFFFFC4
:10065600FFFFFFFFFFFFFFFFFFFFACFB59D5623532
:100666006235623562355A155A1559F559D451D441
:1006760051B451B45194497330D24993FFDFFFFF0F
:10068600FFFFFFFFFFFFFFFFFFFFFFFFFFFFFFFF74
:10069600FFFFFFFFE71E6AB64154499451B451B4B7
:1006A60051B44993499349734152413230D128B1EB
:1006B6009CB9FFFFFFFFFFFFFFFFFFFFFFFFFFFFED
:1006C600FFFFFFFFFFFFFFFFFFFFFFFFFFFFFFFF34
:1006D600DEBD83B7415330D128B028B02890288F8B
:1006E600288F5233AD19FFFFFFFFFFFFFFFFFFFF0C
:1006F600FFFFFFFFFFFFFFFFFFFFFFFFFFFFFFFF04
:10070600FFFFFFFFFFFFFFFFFFFFFFFFFFFFF79E5C
:10071600D69CCE1BCE5BE71DFFFFFFFFFFFFFFFF53
:10072600FFFFFFFFFFFFFFFFFFFFFFFFFFFFFFFFD3
:100736004F925F926F927F928F929F92AF92BF92EB
:10074600CF92DF92EF92FF920F931F93CF93DF9397
:100756008091C703882309F463C0E6ECF3E01182B5
:1007660083818130A1F170F0823009F059C081E0B7
:100776008093C60320E030E0A90160E080E00E949B
:10078600AC154EC08091C80320E1829FF001112470
:10079600EA53FC4F9481911106C020E030E0A90194
:1007A60063E00E94AC15E6ECF3E0C28130E1C39F42
:1007B600E0011124CA53DC4F81E08C8301A4F2A529
:1007C600E02D09956C877D878E879F8729C0A6ECCB
:1007D600B3E01296EC91129740E1E49FF0011124E8
:1007E600EA53FC4F14828C91882389F1FD01108213
:1007F60001A4F2A5E02D0995693B7B408105910591
:1008060040F420E030E0A90161E080E00E94AC15F0
:1008160007C020E030E0A90162E080E00E94AC154C
:100826008091C603882399F0E091EF03F091F003DD
:100836000995693B7B408105910548F01092C603F6
:1008460020E030E0A90162E080E00E94AC15C6EC31
:10085600D3E0F12C6E010F2EF8EC8F2E912CF02D9B
:100866000F2EF4E6AF2EB12CF02DEE24E3948E017C
:100876008D819E818436910531F1883C910509F47C
:1008860086C0892B09F0E0C08C81882309F413C146
:10089600D6019996ED91FC919A9709954C845D84C1
:1008A6006E847F84DC01CB0184199509A609B709FA
:1008B6004497A105B10508F4C7C0BE82AD828C81FC
:1008C6008111F9C0CAC08C81882309F4C6C0D6013B
:1008D6009996ED91FC919A9709954C845D846E8466
:1008E6007F84DC01CB0184199509A609B709853FE8
:1008F6009140A105B10508F4A7C0D6019996ED91DE
:10090600FC919A970995688B798B8A8B9B8BD6017C
:100916009996ED91FC919A9709954C845D846E8425
:100926007F849B01AC012419350946095709290121
:100936003A01D60194968C9194978823D9F099968A
:10094600ED91FC919A970995F60165A376A387A385
:1009560090A7F8EB4F16FBE05F066104710450F0B8
:10096600D60194961C9220E030E0A9016CE080E06C
:100976000E94AC15A301920169E08F2D0E94AC156F
:10098600F801968285828481811195C07AC08C8116
:10099600882309F476C0D6019996ED91FC919A9731
:1009A6000995488859886A887B88DC01CB018419B7
:1009B6009509A609B70985369105A105B10508F47B
:1009C60043C0D6019996ED91FC919A970995688B4B
:1009D600798B8A8B9B8BD6019996ED91FC919A9790
:1009E60009954C845D846E847F849B01AC01241937
:1009F60035094609570929013A01D60194968C9181
:100A060094978823D9F09996ED91FC919A97099538
:100A1600F60165A376A387A390A7F8EB4F16FBE034
:100A26005F066104710450F0D60194961C9220E092
:100A360030E0A9016CE080E00E94AC15A3019201B0
:100A460069E08F2D0E94AC15F8018481811133C0B5
:100A5600858196818436910589F4D6019996ED9122
:100A6600FC919A970995F801608771878287938729
:100A760087818F5F8783168215821DC0883C91050A
:100A8600D1F4D6019996ED91FC919A970995F801C2
:100A960044845584668477849B01AC012419350906
:100AA600460957096AE08F2D0E94AC15D8011696A3
:100AB6001C921E921597F8018781882309F495C028
:100AC600D6019996ED91FC919A970995F801408483
:100AD600518462847384DC01CB0184199509A609CB
:100AE600B7098C329140A105B10508F47EC0D80142
:100AF60017964C90512C612C712CB1E04B16510479
:100B06006104710441F420E030E0A90164E08F2D16
:100B16000E94AC158EC0E2E04E16510461047104C9
:100B260041F420E030E0A90165E08F2D0E94AC156C
:100B360080C0F5E04F1651046104710441F420E0D1
:100B460030E0A90166E08F2D0E94AC1572C027E047
:100B5600421651046104710441F420E030E0A90119
:100B660067E08F2D0E94AC1564C03AE0431651042D
:100B76006104710441F420E030E0A90168E08F2DA2
:100B86000E94AC1556C0F11017C0D60194961C925F
:100B9600B3E04B1651046104710429F5F601E4A291
:100BA60001A4F2A5E02D0995D60195966D937D9346
:100BB6008D939C93989717C0B1E0FB1214C04A948A
:100BC60045284628472879F4D60194968C9194971F
:100BD600882349F094961C9220E030E0A9016BE04E
:100BE60080E00E94AC15F8011782F3946096F2E05B
:100BF600FF123DCE8091EA038823F1F0C6ECD3E0E4
:100C0600E9A5FAA509950DA11EA12FA138A5DC011C
:100C1600CB01801B910BA20BB30B843F9140A10526
:100C2600B10550F01092EA0307C0D60194961C92C3
:100C3600DACFFF20D1F3C0CFDF91CF911F910F9173
:100C4600FF90EF90DF90CF90BF90AF909F908F90E6
:0A0C56007F906F905F904F9008951B
:100C6000AEE0B0E0E6E3F6E00C94DF144C016B017B
:100C70001A8219828FEF9FEF9C838B831E821D82C5
:100C800058874F833A872987A12CB12CD6016D90C4
:100C90007C90F301EA0DFB1D808181110FC0D6010C
:100CA000ED93FC938081853209F0D3C13F01BFEF02
:100CB0006B1A7B0AF6017182608219C0853279F362
:100CC000B401082E000C990B0E94B00F4FEFA41A2C
:100CD000B40ADCCF8C32ACF08D32F9F489819A8180
:100CE00081609A8389833196D601ED93FC93D60176
:100CF000ED91FC9180818B3269F789819A818460C2
:100D0000F0CF803221F489819A818860EACF8332E2
:100D100051F489819A818061E4CF803321F4898103
:100D20009A818260DECFB701C6010E9435139E838F
:100D30008D8397FF0BC029813A81B1E02B273A833D
:100D400029839195819591099E838D8389819A81CB
:100D500080FF03C08D7F9A838983D601ED91FC913A
:100D6000119780818E3249F43196ED93FC93B7014F
:100D7000C6010E9435139C838B83C6010E942714F1
:100D8000582ED601ED91FC918081082E000C990B14
:100D90000E942C17893609F443C084F4833609F481
:100DA00002C134F4853209F427C18136E1F030C143
:100DB0008436B1F188360CF4D9C02AC1803709F4E1
:100DC0009AC03CF48E3609F4BCC08F3609F461C079
:100DD0001FC1853709F440C0883709F476C08337CE
:100DE00009F016C1F3C0652D70E0A701CE010B9686
:100DF0000E940000892B09F426C1D601ED91FC91D7
:100E00001197CF0101968D939C932081AE01455F90
:100E10005F4FBE016F5F7F4FC4010E94000010C191
:100E2000652D70E0970141E050E0CE010B960E94E5
:100E3000740D892B09F407C1F60180819181019617
:100E400091838083AE01455F5F4FBE016F5F7F4F2F
:100E5000C4010E94020DF4C0652D70E0970140E0CE
:100E600050E0CE010B960E94740D892B09F4EBC063
:100E7000D6018D919C91119701968D939C93AE0113
:100E8000455F5F4FBE016F5F7F4FC4010E944610F8
:100E9000D7C0652D70E0970140E050E0CE010B9681
:100EA0000E94740D892B09F4CEC0F60180819181D6
:100EB000019691838083AE01455F5F4FBE016F5FF6
:100EC0007F4FC4010E94030FBBC0652D70E09701E6
:100ED00040E050E0CE010B960E94740D892B09F47E
:100EE000B2C0D601ED91FC911197CF0101968D937F
:100EF0009C9320811CC0970140E050E060EF70E0BF
:100F0000CE010B960E94740D892B09F49CC0F6014A
:100F1000808191810196918380838B859C85892B2B
:100F200029F420E030E04DE854E084C028E7AE0129
:100F3000455F5F4FBE016F5F7F4FC4010E94CF0AC4
:100F40007FC0A501400F511F652D70E09701CE01B4
:100F50000B960E940000892B09F475C0D6018D9173
:100F60009C91119701968D939C9373C0652D70E0B1
:100F7000A701CE010B960E940000892B09F463C0E3
:100F8000D601ED91FC911197CF0101968D939C9321
:100F90002081AE01455F5F4FBE016F5F7F4FC4018F
:100FA0000E9400004DC0B0E85B124DC0F601808188
:100FB0009181019691838083D701ED91FC911197E6
:100FC000CF0102968D939C93808120C0B0E85B1284
:100FD0003AC0F60180819181019691838083D70187
:100FE000ED91FC911197CF0102968D939C934081D6
:100FF000518120E030E01EC0B0E85B1224C0F60151
:10100000208131812F5F3F4F318320838B870DC03B
:1010100085E28B87D6016D927C921A8219821E829C
:101020001D828FEF9FEF9C838B8321E030E0AE0128
:10103000455F5F4FBE016F5F7F4FC4010E949013F9
:101040008A0D9B1D07C0F6018081918101969183D5
:0C1050008083C5012E96EFE00C9416156D
:10105C002F923F924F925F926F927F928F929F92BC
:10106C00AF92BF92CF92DF92EF92FF920F931F93AA
:10107C00CF93DF9300D000D000D0CDB7DEB70E9465
:10108C00D2160091A0041091A1042091A2043091D9
:10109C00A3046B017C01C01AD10AE20AF30A97017E
:1010AC008601053011052105310508F44AC160930C
:1010BC00A0047093A1048093A2049093A30486E0EF
:1010CC00EFE6F4E0DE01119601900D928A95E1F7BE
:1010DC00CE0101962C015E0197E0A90EB11CD20144
:1010EC000F2EF4E2EF2EFF24F394F02D0F2EF4EDDF
:1010FC00CF2ED12CF02DED91FD9164817581208145
:10110C003181260F371F318320834681578182819D
:10111C009381840F951F938382831216130664F0B8
:10112C00118210829B01772324F422273327261B5C
:10113C00370B3583248311C02432314074F0F18293
:10114C00E0829B01772324F422273327261B370BBD
:10115C00319521953109358324831816190664F0CD
:10116C0013821282CA01992324F488279927841B9D
:10117C00950B9783868311C0843D910574F0D382BF
:10118C00C282CA01992324F488279927841B950BC2
:10119C0091958195910997838683AA16BB0609F0D0
:1011AC00AACF3201812C912C8FEF881A980A93E0E8
:1011BC008916910409F491C01301E2E02E0E311C42
:1011CC0051016401F301E080F180F501019111916D
:1011DC005F01F70180819181F80120813181821BAF
:1011EC00930B4B96C79708F06EC0F70182819381E1
:1011FC00F80122813381821B930B4B96C79708F021
:10120C0062C0F701848195819195819591099583AF
:10121C0084838681978191958195910997838683A3
:10122C00F8018481958191958195910995838483A9
:10123C008681978191958195910997838683F70192
:10124C0084819581892B61F40E94661480FD03C012
:10125C009FEF8FEF02C091E080E0F70194838583CC
:10126C00F70186819781892B61F40E94661480FDB9
:10127C0003C09FEF8FEF02C091E080E0F7019683EF
:10128C008783F80184819581892B61F40E9466140F
:10129C0080FD03C09FEF8FEF02C091E080E0F8016A
:1012AC0094838583F80186819781892B61F40E9450
:1012BC00661480FD03C09FEF8FEF02C091E080E0C9
:1012CC00F80196838783FFEFCF1ADF0A13E0C1166C
:1012DC00D1040CF477CF310167CF0F2EF5E7EF2E49
:1012EC00F4E0FF2EF02D0F2EFBE7CF2EF4E0DF2ED7
:1012FC00F02D0F2EFBE7AF2EF4E0BF2EF02DF201F8
:10130C00019111912F01F80122813381408151818A
:10131C00F60160817181F701808191810E94410EFB
:10132C00F80180819181F701819391937F01F801FC
:10133C0082819381F601819391936F01EA14FB04EE
:10134C00F1F626960FB6F894DEBF0FBECDBFDF9137
:10135C00CF911F910F91FF90EF90DF90CF90BF90A6
:10136C00AF909F908F907F906F905F904F903F9039
:04137C002F90089511
:10138000579A569A0E944F170E94391681E00E9480
:101390003B176AE070E080E090E00E9427168BEC3B
:1013A0000E943B1789E30E943F178CE20E943F177F
:1013B00080E00E943F1784E30E943F1782E00E9472
:1013C0003F178FEC0E943B1780E00E943F1781EC93
:1013D0000E943F1780E30E943F1788EE0E943B1750
:1013E00085E80E943F1780E00E943F1788E70E942F
:1013F0003F178AEE0E943B1780E00E943F1780E073
:101400000E943F178DEE0E943B1784E60E943F1713
:1014100083E00E943F1782E10E943F1781E80E940B
:101420003F1787EF0E943B1780E20E943F1780EC36
:101430000E943B1783E20E943F1781EC0E943B17FA
:1014400080E10E943F1785EC0E943B178EE30E94CB
:101450003F1788E20E943F1787EC0E943B1786E8FF
:101460000E943F1786E30E943B1788E40E943F17C3
:101470008AE30E943B1785E50E943F1781EB0E949B
:101480003B1780E00E943F1788E10E943F1786EBE0
:101490000E943B1788E00E943F1782E80E943F1796
:1014A00087E20E943F1782EF0E943B1780E00E9474
:1014B0003F1786E20E943B1781E00E943F1780EEB3
:1014C0000E943B178FE00E943F1781E30E943F1765
:1014D0008BE20E943F178CE00E943F178EE00E9433
:1014E0003F1788E00E943F178EE40E943F1781EF6C
:1014F0000E943F1787E30E943F1787E00E943F1733
:1015000080E10E943F1783E00E943F178EE00E9417
:101510003F1789E00E943F1780E00E943F1781EE4D
:101520000E943B1780E00E943F178EE00E943F1709
:1015300084E10E943F1783E00E943F1781E10E94EF
:101540003F1787E00E943F1781E30E943F1781EC1D
:101550000E943F1788E40E943F1788E00E943F17CF
:101560008FE00E943F178CE00E943F1781E30E94AA
:101570003F1786E30E943F178FE00E943F1781E1EB
:101580000E943B1764E670E080E090E00E9427161E
:0E15900089E20E943B1780E00E945C0F0895E4
:10159E00AFE0B0E0E5EDFAE00C94DC141C016B0159
:1015AE005A8349832B83FB018281938184809580AA
:1015BE0000811181A680B78097FD02C00D7F02C009
:1015CE0081E090E0E981FA814080518062807380F1
:1015DE009801207133273D832C83740104FF08C0CA
:1015EE00411451046104710419F032E0E31AF10858
:1015FE00F801E870FF27FF83EE8303FF03C0F1E0DD
:10160E00EF1AF108F6010084F185E02D3197FF877E
:10161E00EE87EA0DFB1D10829C012E193F093987BA
:10162E002887C801827099279B878A87EB818E2F26
:10163E00EE0F990B9C01215431093D872C872E8585
:10164E003F852230310530F48C819D81892B09F044
:10165E0042C05CC0411451046104710461F18E8575
:10166E009F8501979F878E87C2018F7099278A3039
:10167E00910514F4C09602C0895A9F4FEC85FD85E2
:10168E007A9748F49C012062215631092A3131059E
:10169E0010F40E941B17EE85FF85EA0DFB1D80835B
:1016AE00F1E0EF1AF10884E076946794579447942A
:1016BE008A95D1F7C4CF888599858E0D9F1D1816F2
:1016CE0019066CF21E141F040CF0BECFEA85FB85C2
:1016DE00EF2B29F6B9CFE981FA8180819181A28120
:1016EE00B381892B8A2B8B2B89F0EE85FF85EA0D32
:1016FE00FB1D31972B8120838E859F8502979F87B7
:10170E008E87FC01EA0DFB1D80E38083EE81FF8155
:10171E00EF2B59F02E853F85215031093F872E87BB
:10172E00F901EA0DFB1D80E28083F60140855185AB
:10173E00415051092E853F85421B530BB9016A0D4D
:10174E007B1D9401C1010E94CE119C01F10180818B
:10175E00918190FF06C0F6018281938182179307D3
:0C176E000CF4C9012F96E2E10C94131555
:10177A002F923F924F925F926F927F928F929F9297
:10178A00AF92BF92CF92DF92EF92FF920F931F9385
:10179A00CF93DF93CDB7DEB72E970FB6F894DEBF9F
:1017AA000FBECDBFE82FEE2009F49AC0AE2CB12CA3
:1017BA00A69E4001A79E900CB69E900C112424016F
:1017CA00420E531E81E4481681E0580608F088C08C
:1017DA00A49ED001A59EB00DB49EB00D1124A00FF9
:1017EA00B11FA13FB10508F07BC04115510509F4AD
:1017FA0077C08E2D38013A8329835C874B87788797
:10180A006F83880C991C7B01EE0CFF1CFE82ED8213
:10181A00CE2ED92E8501000F111F815090E09C0118
:10182A00220F331F1C821B822E5F3F4FFC01319611
:10183A00FA87E987F1E04F1A51083E872D8744C09D
:10184A00F901949131968491AD85BE85A40FB51F97
:10185A00FA01908381833296EA17FB07D1F72E5F4C
:10186A003F4F400F511F6217730751F7E984FA84FB
:10187A00E60CF71C13019101A201B10189819A8139
:10188A000E940712B40182E091E00E9443176AE0C5
:10189A0070E080E090E00E944A16FFEF2F1A3F0A9C
:1018AA002E143F0441F72B813C812F5F3F4F3C832D
:1018BA002B836A0C7B1CED80FE80CE0CDF1CEB8434
:1018CA00FC84E216F30661F0EF80F884EF2871F2E7
:1018DA0042E051E06D817E816C0D7D1D9601B0CF95
:1018EA002E960FB6F894DEBF0FBECDBFDF91CF9113
:1018FA001F910F91FF90EF90DF90CF90BF90AF9024
:10190A009F908F907F906F905F904F903F902F9015
:02191A0008952E
:10191C006F927F928F929F92AF92BF92CF92DF92F3
:10192C00EF92FF920F931F93CF93DF93CDB7DEB758
:10193C00C059D1400FB6F894DEBF0FBECDBF7A01AF
:10194C00590121503109260F371F41505109480FB9
:10195C00591F0E940712AE9C6001AF9CD00CBE9C1C
:10196C00D00C1124E12CF12CFE013196CE018F56B6
:10197C009E4F1083018332968E179F07D1F75F9A83
:10198C00C114D104E104F10409F10F2EF8EC6F2E0F
:10199C00F02D712C00E010E04601570189ECC816BF
:1019AC00D104E104F10420F0862C972CA02EB12E4A
:1019BC00B401660F771FCE0101960E941516AA245A
:1019CC00BB24C818D908EA08FB0831F7C057DE4F0A
:1019DC000FB6F894DEBF0FBECDBFDF91CF911F9134
:1019EC000F91FF90EF90DF90CF90BF90AF909F90B2
:0819FC008F907F906F90089519
:101A0400A2E0B0E0E8E0FDE00C94DC143C016B01E2
:101A1400FB0122813381A480B580808191819A83E6
:101A2400898386809780FA012080318042805380A8
:101A3400B201A10157FE07C044275527BA01421934
:101A440053096409750937FD03C08D7F9A8389831F
:101A5400950157FC05C0898182FD02C083FF02C045
:101A640021503109CE0101967C010AE010E0C60143
:101A74000E94DC0D57FC03C0298122FF0AC0019794
:101A8400F401E80FF91F57FC02C02BE209C02DE254
:101A940007C023FF06C00197F401E80FF91F20E2F5
:101AA400208309811A81F6014085518541505109ED
:101AB400481B590BB401680F791F9501C3010E949B
:101AC400CE119C01F3018081918190FF06C0F60143
:101AD40082819381821793070CF4C9012296E2E173
:041AE4000C94131536
:101AE800CF93DF93DC01F90168387105F1F05CF4FC
:101AF8006138710561F164387105A1F160387105CB
:101B080009F051C02FC0603C710509F441C0603F25
:101B18007105F1F1603A710509F045C0C081D181C4
:101B2800CE0102969183808325C0C081D181CE01E8
:101B3800029691838083452B39F04881042E000C4E
:101B4800550B660B770B1CC0488150E029C0C0813B
:101B5800D181CE01049691838083488159816A811D
:101B68007B810EC0C081D181CE0102969183808392
:101B7800452BA1F048815981052E000C660B770B87
:101B88004D935D936D937C93139781E090E00DC026
:101B9800C081D181CE010296918380834881598189
:101BA80060E070E0EDCF80E090E0DF91CF910895A4
:101BB800A0E0B0E0E2EEFDE00C94DE14DC012801C8
:101BC8001696AD90BC901797F70180819181129677
:101BD800ED91FC9113971896CD91DC911997219767
:101BE800F7FF02C0E1E0F0E0CA0DDB1D18826901D1
:101BF800A1E0B0E08F01021B130B4C01F2E08F2231
:101C08009924052C000C66087708CE018A199B09CF
:101C1800CA15DB0519F1411551056105710589F0F2
:101C2800CB01BA01A30192010E940514CA01A62F93
:101C3800B72F605D6A9341E0C41AD108A901BC01BD
:101C4800E4CF98012C0D3D1D121613064CF31C14FD
:101C58001D0434F48114910419F702C080E090E067
:101C6800AB2B31F4F701208131812F7E3183208322
:0A1C7800CDB7DEB7E0E10C941515BE
:101C82008F929F92AF92BF92CF92DF92EF920F9379
:101C92001F93CF93DF934C015B016A01E901EE24AC
:101CA200E39489019A014CE150E06CE170E086E135
:101CB20091E00E94BD0B8C149D0464F4A6014819A6
:101CC20059090FEF1FEF2CE130E0B501C4010E946A
:101CD2008E0C0FC0C814D90464F4A4014C195D0918
:101CE2000FEF1FEF2CE130E0B501C6014C960E94C8
:101CF2008E0CAC16BD0664F49E012A193B090FEF47
:101D02001FEF4CE150E0B501C6010E948E0C10C0DD
:101D1200CA15DB056CF495012C1B3D0BBE01645EFC
:101D22007F4F0FEF1FEF4CE150E0C6010E948E0C77
:101D3200DF91CF911F910F91EF90DF90CF90BF90E5
:081D4200AF909F908F9008956F
:101D4A000F931F93CF93DF93E091B004F091B10406
:101D5A000995009198041091990420919A04309160
:101D6A009B04DC01CB01801B910BA20BB30B0091EE
:101D7A009C0410919D0420919E0430919F04801729
:101D8A009107A207B307A8F1E091B004F091B1045A
:101D9A000995609398047093990480939A04909398
:101DAA009B048BE30E94C315C7E3D4E0998388831D
:101DBA008DE30E94C3159B838A838FE30E94C31518
:101DCA009D838C8383E40E94C3159F838E8385E45D
:101DDA000E94C3159987888787E40E94C3159B8749
:101DEA008A8781E40E94C3159D878C87CE010E9451
:0C1DFA004A17DF91CF911F910F910895BF
:101E0600A2E0B0E0E9E0FFE00C94E0144C016B01C5
:101E1600FB012281338164807580808191819A8360
:101E26008983A680B78037FD03C08D7F9A83898317
:101E3600FA014081518162817381CE0101967C0154
:101E460008E010E09301C6010E94DC0D298124FF01
:101E560006C00197F501E80FF91F20E320832981C9
:101E660023FF06C00197F501E80FF91F20E2208342
:101E760009811A81F6014085518541505109481B57
:101E8600590BB501680F791F9301C4010E94CE1149
:101E96009C01F4018081918190FF06C0F601828148
:101EA6009381821793070CF4C9012296EEE00C94F5
:021EB6001715FE
:101EB800CF93C82F86E30E943B1761E070E080E073
:101EC80090E00E942716C130B1F028F0C23019F115
:101ED800C33089F13FC088E40E943F1780EF90E04B
:101EE8009093AF048093AE0480E491E09093AD04A6
:101EF8008093AC042FC088E20E943F1780E491E0F1
:101F08009093AF048093AE0480EF90E09093AD047B
:101F18008093AC041FC088E80E943F1780EF90E0D0
:101F28009093AF048093AE0480E491E09093AD0465
:101F38008093AC040FC088EE0E943F1780E491E0C4
:101F48009093AF048093AE0480EF90E09093AD043B
:081F58008093AC04CF910895C1
:101F60000F931F93CF93DF93DB01109719F48FEF3B
:101F70009FEF3DC02D913C91119730FF25C01696E3
:101F80004D915C91179714962D913C91159742179E
:101F9000530778F41296ED91FC9113978083129673
:101FA0002D913C9113972F5F3F4F13963C932E93A7
:101FB000129716962D913C9117972F5F3F4F1796CA
:101FC0003C932E93169713C01C96ED91FC911D9790
:101FD000309769F2EB01092F182F0995892B39F6F3
:101FE0008E819F8101969F838E83812F902FDF9119
:081FF000CF911F910F9108959C
:101FF800FF920F931F93CF93DF9342E062E087E84D
:1020080094E00E948D10E89AC9E6D0E0888181604A
:10201800888301E814E0FF24F394F801F38242E096
:1020280063E087E894E00E948D10E99A88818460D3
:102038008883F801F4828081882319F0813041F087
:102048001AC099B192FB222720F991E0922706C085
:1020580099B193FB222720F991E09227992359F00F
:10206800E1E8F4E091E095830180F281E02D30977A
:1020780011F062E009957894DF91CF911F910F914B
:04208800FF90089528
:10208C00A2E0B0E0ECE4F0E10C94E0145C016B0134
:10209C00FB012281338184809580808191819A8398
:1020AC0089836680778037FD03C08D7F9A8389830F
:1020BC00FA014081518162817381CE0101967C01CC
:1020CC000AE010E09401C6010E94DC0D09811A811E
:1020DC00F6014085518541505109481B590BB301FC
:1020EC00680F791F9401C5010E94CE119C01F50166
:1020FC008081918190FF06C0F601828193818217C5
:0E210C0093070CF4C9012296EEE00C9417150F
:10211A004130E1F018F0423039F10895DC01ED91D7
:10212A00FC911197408121E030E002C0220F331F59
:10213A006A95E2F72095342F322330831296ED9177
:10214A00FC9113978081282320830895DC01ED9167
:10215A00FC91208181E090E002C0880F991F6A9566
:10216A00E2F7822B80830895DC01ED91FC911197AF
:10217A00408121E030E002C0220F331F6A95E2F766
:10218A00322F3095342330831296ED91FC911397B8
:08219A008081282B20830895A9
:1021A200EF92FF920F931F93CF93DF93CDB7DEB7DA
:1021B200C054D1090FB6F894DEBF0FBECDBF40E4C4
:1021C20050E0BC01CE0101960E94621521961FAE1D
:1021D200219763E974E0CE0101960E9453118C01AC
:1021E20063E974E080E090E00E9453117C0163E9AE
:1021F20074E080E090E00E9453110115110529F06E
:10220200AC01B701C8010E94BC16C05CDF4F0FB61B
:10221200F894DEBF0FBECDBFDF91CF911F910F911A
:06222200FF90EF9008950B
:102228000F931F93CF93DF93CDB7DEB7C052D34040
:102238000FB6F894DEBF0FBECDBF182F092F20EFC1
:1022480030E040E451E060E070E080E090E00E941F
:102258000712902F812FFE0131969E012F5D3C4F72
:102268009083818332962E173F07D1F700E010E064
:1022780060E273E0CE0101960E9443170F5F1F4F83
:10228800003C1105A9F7C05EDC4F0FB6F894DEBF1D
:0E2298000FBECDBFDF91CF911F910F91089522
:1022A6000F931F93CF93DF93EC018B01892B31F4AE
:1022B600C091BA04D091BB04209751F1B801CE0168
:1022C6000E94BF14C80FD91F8881811105C01092C2
:1022D600BB041092BA041DC0B801CE010E94A2141C
:1022E600FE01E80FF91FF093BB04E093BA04808166
:1022F600882341F0CF0101969093BB048093BA04E2
:10230600108204C01092BB041092BA04CE0102C01F
:0E23160080E090E0DF91CF911F910F9108952C
:10232400A2E8B0E0E8E9F1E10C94E2145C014A01AE
:10233400CF57DF4F79836883C158D040C12CD12C4B
:10234400CF57DF4FE881F981C158D040808188237D
:10235400E9F07401860120E830E0AE014F5F5F4F81
:10236400BE016F577F4FC5010E9430068C0D9D1D25
:102374008C159D054CF48FE490E0909301018093BB
:1023840000018FEF9FEF03C06C01DACFC601CE5777
:08239400DF4FECE00C94191579
:10239C00A0E0B0E0E4EDF1E10C94E2146C015B011F
:1023AC007A01E901480181E08822992400FD03C0EB
:1023BC004217530750F0A701B501C6010E948514BE
:1023CC00EC16FD0610F0C70117C08E010E191F097F
:1023DC000115110541F0B60180E290E00E94B00FAA
:1023EC0001501109F5CF8114910429F4A701B5010D
:1023FC00C6010E948514CE01CDB7DEB7ECE00C947B
:02240C001915A0
:10240E00EF92FF920F931F93CF93DF9300D000D0E4
:10241E00CDB7DEB7F62EE72E122F032F99838A83C0
:10242E005B834C838AE20E943B1764E070E0CE012E
:10243E0001960E944317E982FA820B831C838BE27A
:10244E000E943B1764E070E0CE0101960E94431794
:10245E008CE20E943B170F900F900F900F90DF9120
:0C246E00CF911F910F91FF90EF90089507
:10247A000F931F93CF93DF93E9EBF0E090819D7F59
:10248A00908390819E7F908398E49093B800ECEBC0
:10249A00F0E09081946090838823C1F0C0E00CEB57
:1024AA0010E0D4E98C2F880F0E942E15882329F07A
:1024BA008C2F0E94A316F801D0838FE39CE9019721
:1024CA00F1F700C00000CF5FCF3761F7DF91CF91FE
:0624DA001F910F9108950F
:1024E0000F931F93CF93DF938C010F5F1F4FFC015E
:1024F00080816115710519F48FEF9FEF1EC0FB01FC
:1025000024853585232BC1F3EB01EC85FD85BE01C8
:10251000882339F00995892B79F7F80181918F018A
:10252000F4CF8AE0099521E030E0892B11F420E016
:1025300030E088279927821B930BDF91CF911F9161
:042540000F9108955A
:102544001F920F920FB60F9211242F933F934F9324
:102554005F936F937F938F939F93AF93BF93EF9307
:10256400FF93E0918204F0918304309749F04A99F3
:1025740004C060E080E0099503C061E080E0099553
:10258400FF91EF91BF91AF919F918F917F916F9147
:102594005F914F913F912F910F900FBE0F901F901D
:0225A400189588
:1025A6001F920F920FB60F9211242F933F934F93C2
:1025B6005F936F937F938F939F93AF93BF93EF93A5
:1025C600FF93E0918204F0918304309749F04B9990
:1025D60004C060E081E0099503C061E081E00995EF
:1025E600FF91EF91BF91AF919F918F917F916F91E5
:1025F6005F914F913F912F910F900FBE0F901F90BB
:02260600189525
:102608001092C50087E68093C400E1ECF0E0808179
:1026180080618083808188608083808180688083F6
:1026280080818B7F8083E2ECF0E08081846080830E
:1026380080818260808380818F7D808380818F7E8E
:1026480080838081877F8083E091B604F091B7040E
:1026580087E294E09183808385E494E00E941217D6
:022668000895D3
:10266A00DC01ED91FC91119780818A3221F080E0A2
:10267A0090E03AE00EC03196ED93FC93DB01ED91C8
:10268A00FC911197CF0102968D939C938081918141
:10269A000895ED91FC911197208120532A3068F416
:1026AA00389FA001399F500D1124CA01820F911D34
:0C26BA0031961196FC93EE93ECCF08953E
:1026C6001F921FB61F9211248F939F93EF93FF9330
:1026D6008091C600E091BD04EF31A8F491E09E0F11
:1026E6009093BD04F0E0EF50FC4F80838A3069F48C
:1026F600E92FF0E0EF50FC4F108281E08093BC049C
:102706001092BD0402C01092BD04FF91EF919F91FB
:0A2716008F911F901FBE1F901895B1
:10272000A0E0B0E0E6E9F3E10C94E4147C01FB01E5
:10273000EA01C901A280B380C480D58000811181E3
:10274000209711F4C8E6D4E0009719F4CE010E9456
:102750009516B7FC04C0A816B90608F4C501960181
:10276000AC01BE01C7010E94CE11CDB7DEB7EAE0D1
:042770000C941B1595
:102774000E9448150E94041380E00E943D120E94AA
:10278400DA1582ED96E10E94FE1682ED96E10E9432
:10279400F8140E94DA150E94C00983E00E945C0FBD
:1027A4008FEF9FEF0E9414110E94531778940E9498
:1027B400DD160E94A50E0E949B030E942E08F7CFEF
:1027C4001F921FB61F9211248F939F93AF93BF93B1
:1027D4008091A4049091A504A091A604B091A704AB
:1027E4000196A11DB11D8093A4049093A504A09308
:1027F400A604B093A704BF91AF919F918F911F90AE
:062804001FBE1F90189595
:10280A00A1E21A2EAA1BBB1BFD010DC0AA1FBB1FEA
:10281A00EE1FFF1FA217B307E407F50720F0A21B5C
:10282A00B30BE40BF50B661F771F881F991F1A94C9
:10283A0069F760957095809590959B01AC01BD01F3
:04284A00CF0108951D
:10284E00CF93DF93EC0190E0E92FF0E0EE0FFF1F46
:10285E00EF5EFB4F8081811102C081810EC0A88185
:10286E00B9812C91821305C091811196B983A883E9
:10287E0001C09F5F9B3040F3892FDF91CF91089568
:10288E00CF93DF93C82FD62F880F0E942E158D2F32
:10289E000E9403168C2F880F81600E942E1584E8EB
:1028AE008093BC00ECEBF0E080818823ECF7809104
:0E28BE00BB0094E99093BC00DF91CF91089588
:1028CC00E8EAF4E020813181428153816DE27FE7B7
:1028DC0085E99CE40E945A16DC01CB010196A11DEE
:1028EC00B11DE8EAF4E080839183A283B383F1E124
:0E28FC00B695A79597958795FA95D1F708950B
:10290A00A0E0B0E0EBE8F4E10C94E6146C01EB0112
:10291A008A017B01E40EF51ECE15DF0541F089918F
:10292A00B601082E000C990B0E94B00FF5CFC80112
:0A293A00CDB7DEB7E8E00C941D15E0
:10294400A0E0B0E0E8EAF4E10C94E6148C016B0139
:10295400EC017E01E01AF10A6991662341F0062E2A
:10296400000C770BC6010E94B016892B91F3C701A6
:0A297400CDB7DEB7E8E00C941D15A6
:10297E00A0E0B0E0E5ECF4E10C94E6148C016B0100
:10298E00EC017E01E01AF10A6991662341F0062EF0
:10299E00000C770BC6010E94B016892B91F7C70168
:0A29AE00CDB7DEB7E8E00C941D156C
:1029B8002F923F924F925F926F927F928F929F9247
:1029C800AF92BF92CF92DF92EF92FF920F931F9335
:1029D800CF93DF93CDB7DEB7CA1BDB0B0FB6F894E6
:0829E800DEBF0FBECDBF099454
:1029F000CF93DF9300D00F92CDB7DEB79093F00363
:102A00008093EF03198284E397E19B838A83CE014D
:102A100001960E94C7160E94FC0F0F900F900F9016
:062A2000DF91CF91089543
:102A26002A88398848885F846E847D848C849B8458
:102A3600AA84B984C884DF80EE80FD800C811B8166
:102A4600AA81B981CE0FD11D0FB6F894DEBF0FBE95
:062A5600CDBFED01089563
:102A5C0094EA9093BC00ECEBF0E090819923ECF7B6
:102A6C008093BB0084E88093BC00ECEBF0E08081A9
:102A7C008823ECF79091B900987F81E0983109F0A8
:042A8C0080E0089549
:102A900085B5877F85BD84B5826084BD84B581603E
:102AA00084BD85B58B7F85BD85B5826085BD85B5C7
:102AB000816085BD89EF87BDEEE6F0E080818260B0
:042AC0008083089572
:102AC400CF93DF93EB01FC014115510581F0415097
:102AD4005109DF01119629912083FD012111F4CFC1
:102AE4004A0F5B1F4A175B0711F01D92FBCFDF9162
:042AF400CF910895E1
:102AF800A0E0B0E0E2E8F5E10C94EC14AE014B5F25
:102B08005F4FFA0161917191AF01E091B604F091C4
:102B1800B704808191810E949415E2E00C942315FA
:102B2800A2E0B0E0EAE9F5E10C94EA148C015A83DA
:102B38004983AE014F5F5F4F0E949211F8012081D7
:102B480024FF02C08FEF9FEF2296E4E00C9421153A
:102B58005F934F933F932F931F926F931F928F937F
:102B680082E893E09F938F930E947C158DB79EB760
:0E2B78000A960FB6F8949EBF0FBE8DBF08954B
:102B8600CF93DF93D82F682F88E60E944714C82F6B
:102B960061E06D0F88E60E9447142C2F30E0322F3B
:0E2BA6002227A901482BCA01DF91CF91089583
:102BB400239A259A229A2A9A24982C9A8DB5816070
:102BC4008DBD8CB58D7F8CBD8CB58E7F8CBD8CB549
:0C2BD40080618CBD8CB580648CBD0895C0
:102BE000CF93DF93D62FC42F880F0E942E158D2FE1
:102BF0000E9403168C2F0E94031684E98093BC0068
:062C0000DF91CF91089561
:102C06008093BB0084E88093BC00ECEBF0E080810D
:102C16008823ECF79091B900987F81E0983209F00B
:042C260080E00895AD
:102C2A002A986115710561F0FC01680F791F91916D
:102C3A009EBD0DB407FEFDCF8EB5E617F707B9F7AF
:042C4A002A9A089525
:102C4E00611571058105910561F0DC01CB01EFE99C
:102C5E00FFE03197F1F700C000000197A109B1091B
:042C6E00B1F708951D
:102C72005E986AE070E080E090E00E9427162A9851
:102C82006AE070E080E090E00E9427165E9A2A9A3D
:022C92000895A3
:102C9400611571058105910551F0DC01CB0125E039
:102CA4002A95F1F700000197A109B109C1F7089528
:102CB400DB018F939F930E94F316BF91AF91A29F64
:102CC400800D911DA39F900DB29F900D1124089526
:102CD400A29FB001B39FC001A39F700D811D112459
:0E2CE400911DB29F700D811D1124911D089548
:102CF200FC01208131813093B5042093B404828198
:0C2D020093819093B3048093B204089571
:102D0E00DC01FB019D912191921303C09111FACF29
:0C2D1E00292F892F90E0821B9109089555
:102D2A00FC01AF014F5F5F4F2081222311F0FA01AE
:0C2D3A00F8CF9F01281B390BC901089538
:102D46001F928F9381EB93E09F938F930E947C1544
:0A2D56000F900F900F900F9008955A
:102D6000FC012E2F9F2F8191861721F08111F9CF21
:082D700090E00895822F089500
:102D780061EA73E00E948716892B21F487EA93E0C1
:062D88000E9412170895DD
:102D8E00FC0180819181A2818093810490938204C1
:062D9E00A09383040895D8
:102DA400F8946091A4047091A5048091A604909174
:062DB400A70478940895C5
:102DBA008091BC04882331F081EF93E00E94471789
:062DCA001092BC04089504
:102DD000EC010E9455170E945417CE010E9456170D
:062DE000CE010E94511714
:102DE6000E946A16A59F900DB49F900DA49F800D1A
:062DF600911D1124089557
:102DFC009093B1048093B00440E06BE688E60E94A7
:042E0C00F015089520
:102E1000E0ECF0E0908195FFFDCF8093C60080E06C
:042E200090E00895A1
:102E2400E091B604F091B704608171810E94701240
:022E34000895FF
:102E36009C01215631092A31310510F48F759927E5
:022E46000895ED
:102E48002A988EBD0DB407FEFDCF8EB52A9A089537
:102E58009C01215431092A31310508F48062089512
:0E2E6800E6ECF3E091E09183828363830895AA
:082E76005F980E9424170895E3
:082E7E005F9A0E9424170895D9
:082E86005F9A0E9415160895E1
:062E8E000E94D11008951E
:062E94000E94791608956A
:042E9A000C94000094
:042E9E005E9A08959B
:042EA2000E94890001
:022EA60008958D
:022EA80008958B
:022EAA00089589
:022EAC00089587
:102EAE003E3E20627574746F6E206576656E2825C1
:102EBE006429205B25645D2C20256C640D0A00407E
:102ECE00554152540040554152542C6F6B0D003EEB
:102EDE003E204932432061646472203A20307825C6
:042EEE00780D0A0051
:102EF20068076C094C836A9074A07AC00080688865
:062F020000846C820081D6
:102F08000300000000000000000000000817000097
:0B2F18007561727420696E69740D0011
:082F2300320032000200FEFF43
:082F2B0064005000FEFF0200EB
:082F3300A0007800020002007A
:072F3B00286E756C6C290083
:062F420060045804500475
:062F48002A002B00290005
:062F4E00286E696C2900E9
:052F5400202C0D0A0015
:042F59000A0000006A
:022F5D00F00082
:022F5F0040012F
:022F6100B804B2
:00000001FF
